:020000040000FA
:020000000528D1
:06000A000030A10064308B
:10001000200203191028031810282008F0001928BE
:100020006430A002A10A64302002031910280318CA
:1000300010282008F0000030A2000A3070020319D6
:100040002628031826287008F0002F280A30F0020E
:10005000A20A0A30700203192628031826287008FD
:10006000F000A20E0030F1000130700203193D28AB
:1000700003183D287008F00046280130F002F10A0C
:100080000130700203193D2803183D287008F00064
:0600900071082207A20026
:00000001FF
